{
  "contractName": "SingleNumRegister",
  "abi": [
    {
      "inputs": [
        {
          "internalType": "uint256",
          "name": "",
          "type": "uint256"
        }
      ],
      "name": "storeNumbers",
      "outputs": [
        {
          "internalType": "address",
          "name": "from",
          "type": "address"
        },
        {
          "internalType": "uint256",
          "name": "number",
          "type": "uint256"
        }
      ],
      "stateMutability": "view",
      "type": "function"
    },
    {
      "inputs": [
        {
          "internalType": "uint256",
          "name": "num",
          "type": "uint256"
        }
      ],
      "name": "set",
      "outputs": [],
      "stateMutability": "nonpayable",
      "type": "function"
    },
    {
      "inputs": [],
      "name": "get",
      "outputs": [
        {
          "internalType": "uint256",
          "name": "",
          "type": "uint256"
        }
      ],
      "stateMutability": "view",
      "type": "function"
    }
  ],
  "bytecode": "0x608060405234801561001057600080fd5b506103b8806100206000396000f3fe608060405234801561001057600080fd5b50600436106100415760003560e01c806360fe47b1146100465780636d4ce63c14610062578063f5bf94cd14610080575b600080fd5b610060600480360381019061005b919061022f565b6100b1565b005b61006a61015d565b604051610077919061026b565b60405180910390f35b61009a6004803603810190610095919061022f565b6101a0565b6040516100a89291906102c7565b60405180910390f35b600060405180604001604052803373ffffffffffffffffffffffffffffffffffffffff16815260200183815250908060018154018082558091505060019003906000526020600020906002020160009091909190915060008201518160000160006101000a81548173ffffffffffffffffffffffffffffffffffffffff021916908373ffffffffffffffffffffffffffffffffffffffff16021790555060208201518160010155505050565b6000806001600080549050610172919061031f565b90506000818154811061018857610187610353565b5b90600052602060002090600202016001015491505090565b600081815481106101b057600080fd5b90600052602060002090600202016000915090508060000160009054906101000a900473ffffffffffffffffffffffffffffffffffffffff16908060010154905082565b600080fd5b6000819050919050565b61020c816101f9565b811461021757600080fd5b50565b60008135905061022981610203565b92915050565b600060208284031215610245576102446101f4565b5b60006102538482850161021a565b91505092915050565b610265816101f9565b82525050565b6000602082019050610280600083018461025c565b92915050565b600073ffffffffffffffffffffffffffffffffffffffff82169050919050565b60006102b182610286565b9050919050565b6102c1816102a6565b82525050565b60006040820190506102dc60008301856102b8565b6102e9602083018461025c565b9392505050565b7f4e487b7100000000000000000000000000000000000000000000000000000000600052601160045260246000fd5b600061032a826101f9565b9150610335836101f9565b925082821015610348576103476102f0565b5b828203905092915050565b7f4e487b7100000000000000000000000000000000000000000000000000000000600052603260045260246000fdfea26469706673582212207afa90d396b65c0d0508d42bec8bacbc91814c1659b0146aed5e7c5ca0c347ae64736f6c634300080b0033",
  "immutableReferences": {},
  "source": "// contract/SingleNumRegister.sol\npragma solidity ^0.8.11;\n\ncontract SingleNumRegister {\n  struct StoreNumber {\n    address from;\n    uint256 number;\n  }\n\n  StoreNumber[] public storeNumbers;\n\n  function set(uint256 num) public {\n    storeNumbers.push(StoreNumber(msg.sender, num));\n  }\n\n  function get() public view returns (uint256) {\n    uint256 index = storeNumbers.length - 1;\n    return storeNumbers[index].number;\n  }\n}",
  "sourcePath": "/Users/masaakikakimoto/Project/nuxt-web3-counter/contracts/SingleNumRegister.sol",
  "compiler": {
    "name": "solc",
    "version": "0.8.11+commit.d7f03943.Emscripten.clang"
  },
  "schemaVersion": "3.4.4",
  "updatedAt": "2022-01-15T00:55:36.166Z",
  "devdoc": {
    "kind": "dev",
    "methods": {},
    "version": 1
  },
  "userdoc": {
    "kind": "user",
    "methods": {},
    "version": 1
  }
}