{
  "contractName": "SingleNumRegister",
  "abi": [
    {
      "inputs": [],
      "name": "storeNumber",
      "outputs": [
        {
          "internalType": "uint256",
          "name": "number",
          "type": "uint256"
        }
      ],
      "stateMutability": "view",
      "type": "function",
      "constant": true
    },
    {
      "inputs": [
        {
          "internalType": "uint256",
          "name": "num",
          "type": "uint256"
        }
      ],
      "name": "set",
      "outputs": [],
      "stateMutability": "nonpayable",
      "type": "function"
    },
    {
      "inputs": [],
      "name": "get",
      "outputs": [
        {
          "internalType": "uint256",
          "name": "",
          "type": "uint256"
        }
      ],
      "stateMutability": "view",
      "type": "function",
      "constant": true
    }
  ],
  "bytecode": "0x6080604052604051806020016040528060008152506000808201518160000155505034801561002d57600080fd5b5061019e8061003d6000396000f3fe608060405234801561001057600080fd5b50600436106100415760003560e01c80631cdb717f1461004657806360fe47b1146100645780636d4ce63c14610080575b600080fd5b61004e61009e565b60405161005b91906100ef565b60405180910390f35b61007e6004803603810190610079919061013b565b6100aa565b005b6100886100ca565b60405161009591906100ef565b60405180910390f35b60008060000154905081565b604051806020016040528082815250600080820151816000015590505050565b60008060000154905090565b6000819050919050565b6100e9816100d6565b82525050565b600060208201905061010460008301846100e0565b92915050565b600080fd5b610118816100d6565b811461012357600080fd5b50565b6000813590506101358161010f565b92915050565b6000602082840312156101515761015061010a565b5b600061015f84828501610126565b9150509291505056fea264697066735822122045e554f0cbb24bb3a3e983cd747b99eafddb183fa184e51128910424205c759a64736f6c634300080b0033",
  "immutableReferences": {},
  "source": "// SPDX-License-Identifier: MIT\n// contract/SingleNumRegister.sol\npragma solidity ^0.8.11;\n\ncontract SingleNumRegister {\n  struct StoreNumber {\n    uint256 number;\n  }\n\n  StoreNumber public storeNumber = StoreNumber(0);\n\n  function set(uint256 num) public {\n    storeNumber = StoreNumber(num);\n  }\n\n  function get() public view returns (uint256) {\n    return storeNumber.number;\n  }\n}",
  "sourcePath": "/Users/masaakikakimoto/Project/nuxt-web3-counter/contracts/SingleNumRegister.sol",
  "compiler": {
    "name": "solc",
    "version": "0.8.11+commit.d7f03943.Emscripten.clang"
  },
  "schemaVersion": "3.4.4",
  "updatedAt": "2022-03-11T04:21:07.715Z",
  "networkType": "ethereum",
  "devdoc": {
    "kind": "dev",
    "methods": {},
    "version": 1
  },
  "userdoc": {
    "kind": "user",
    "methods": {},
    "version": 1
  }
}